{
  "contractName": "Faucet",
  "abi": [
    {
      "anonymous": false,
      "inputs": [
        {
          "indexed": false,
          "internalType": "string",
          "name": "func",
          "type": "string"
        },
        {
          "indexed": false,
          "internalType": "address",
          "name": "sender",
          "type": "address"
        },
        {
          "indexed": false,
          "internalType": "uint256",
          "name": "value",
          "type": "uint256"
        },
        {
          "indexed": false,
          "internalType": "bytes",
          "name": "data",
          "type": "bytes"
        }
      ],
      "name": "Log",
      "type": "event"
    },
    {
      "stateMutability": "payable",
      "type": "fallback",
      "payable": true
    },
    {
      "inputs": [
        {
          "internalType": "uint256",
          "name": "",
          "type": "uint256"
        }
      ],
      "name": "array",
      "outputs": [
        {
          "internalType": "uint256",
          "name": "",
          "type": "uint256"
        }
      ],
      "stateMutability": "view",
      "type": "function",
      "constant": true
    },
    {
      "inputs": [],
      "name": "counter",
      "outputs": [
        {
          "internalType": "int256",
          "name": "",
          "type": "int256"
        }
      ],
      "stateMutability": "view",
      "type": "function",
      "constant": true
    },
    {
      "inputs": [],
      "name": "funds",
      "outputs": [
        {
          "internalType": "uint256",
          "name": "",
          "type": "uint256"
        }
      ],
      "stateMutability": "view",
      "type": "function",
      "constant": true
    },
    {
      "inputs": [],
      "name": "numOfFunders",
      "outputs": [
        {
          "internalType": "uint256",
          "name": "",
          "type": "uint256"
        }
      ],
      "stateMutability": "view",
      "type": "function",
      "constant": true
    },
    {
      "inputs": [],
      "name": "owner",
      "outputs": [
        {
          "internalType": "address",
          "name": "",
          "type": "address"
        }
      ],
      "stateMutability": "view",
      "type": "function",
      "constant": true
    },
    {
      "inputs": [],
      "name": "test3",
      "outputs": [
        {
          "internalType": "uint256",
          "name": "",
          "type": "uint256"
        }
      ],
      "stateMutability": "pure",
      "type": "function",
      "constant": true
    },
    {
      "inputs": [],
      "name": "testNum",
      "outputs": [
        {
          "internalType": "uint256",
          "name": "",
          "type": "uint256"
        }
      ],
      "stateMutability": "view",
      "type": "function",
      "constant": true
    },
    {
      "stateMutability": "payable",
      "type": "receive",
      "payable": true
    },
    {
      "inputs": [
        {
          "internalType": "uint256",
          "name": "val",
          "type": "uint256"
        }
      ],
      "name": "pushToArr",
      "outputs": [
        {
          "internalType": "uint256[]",
          "name": "res",
          "type": "uint256[]"
        }
      ],
      "stateMutability": "nonpayable",
      "type": "function"
    },
    {
      "inputs": [
        {
          "internalType": "uint256",
          "name": "val",
          "type": "uint256"
        }
      ],
      "name": "getFundsVal",
      "outputs": [
        {
          "internalType": "uint256",
          "name": "res",
          "type": "uint256"
        }
      ],
      "stateMutability": "view",
      "type": "function",
      "constant": true
    },
    {
      "inputs": [],
      "name": "emitLog",
      "outputs": [
        {
          "internalType": "bytes32",
          "name": "",
          "type": "bytes32"
        }
      ],
      "stateMutability": "pure",
      "type": "function",
      "constant": true
    },
    {
      "inputs": [
        {
          "internalType": "address",
          "name": "newOwner",
          "type": "address"
        }
      ],
      "name": "transferOwnership",
      "outputs": [],
      "stateMutability": "nonpayable",
      "type": "function"
    },
    {
      "inputs": [],
      "name": "addFunds",
      "outputs": [],
      "stateMutability": "payable",
      "type": "function",
      "payable": true
    },
    {
      "inputs": [
        {
          "internalType": "uint256",
          "name": "withdrawAmount",
          "type": "uint256"
        }
      ],
      "name": "withdraw",
      "outputs": [],
      "stateMutability": "nonpayable",
      "type": "function"
    },
    {
      "inputs": [],
      "name": "justTesting",
      "outputs": [
        {
          "internalType": "uint256",
          "name": "",
          "type": "uint256"
        }
      ],
      "stateMutability": "pure",
      "type": "function",
      "constant": true
    },
    {
      "inputs": [],
      "name": "test1",
      "outputs": [],
      "stateMutability": "nonpayable",
      "type": "function"
    },
    {
      "inputs": [],
      "name": "test2",
      "outputs": [],
      "stateMutability": "nonpayable",
      "type": "function"
    },
    {
      "inputs": [
        {
          "internalType": "uint8",
          "name": "index",
          "type": "uint8"
        }
      ],
      "name": "getFunderAtIndex",
      "outputs": [
        {
          "internalType": "address",
          "name": "",
          "type": "address"
        }
      ],
      "stateMutability": "view",
      "type": "function",
      "constant": true
    },
    {
      "inputs": [],
      "name": "getAllFunders",
      "outputs": [
        {
          "internalType": "address[]",
          "name": "",
          "type": "address[]"
        }
      ],
      "stateMutability": "view",
      "type": "function",
      "constant": true
    }
  ],
  "bytecode": "0x60806040526103e86002557ffffffffffffffffffffffffffffffffffffffffffffffffffffffffffffffff6600355336000806101000a81548173ffffffffffffffffffffffffffffffffffffffff021916908373ffffffffffffffffffffffffffffffffffffffff1602179055506103e8600181905550610db0806100866000396000f3fe60806040526004361061010d5760003560e01c8063a23f8a3d11610095578063b469570d11610064578063b469570d14610581578063c89f2ce4146105d0578063eeddd004146105fb578063f2fde38b1461068b578063f42c13bf146106dc576101cc565b8063a23f8a3d146104f6578063a26759cb14610521578063ae28f1ed1461052b578063af7f2c9b14610556576101cc565b806361bc221a116100dc57806361bc221a146103da57806366e41cb7146104055780636b59084d1461041c5780636fbbb55d146104335780638da5cb5b1461049f576101cc565b80630a8e8e01146102a75780630a93cf33146102d25780632e1a7d4d1461035057806338d941931461038b576101cc565b366101cc577ff7f75251dee7d7fc22deac3247729ebe7c86541f35930bf10c2a4207479a3b6c333460405180806020018473ffffffffffffffffffffffffffffffffffffffff1673ffffffffffffffffffffffffffffffffffffffff16815260200183815260200180602001838103835260078152602001807f726563656976650000000000000000000000000000000000000000000000000081525060200183810382526000815260200160200194505050505060405180910390a1005b7ff7f75251dee7d7fc22deac3247729ebe7c86541f35930bf10c2a4207479a3b6c333460003660405180806020018673ffffffffffffffffffffffffffffffffffffffff1673ffffffffffffffffffffffffffffffffffffffff16815260200185815260200180602001838103835260088152602001807f66616c6c6261636b0000000000000000000000000000000000000000000000008152506020018381038252858582818152602001925080828437600081840152601f19601f820116905080830192505050965050505050505060405180910390a1005b3480156102b357600080fd5b506102bc610707565b6040518082815260200191505060405180910390f35b3480156102de57600080fd5b5061030e600480360360208110156102f557600080fd5b81019080803560ff169060200190929190505050610710565b604051808273ffffffffffffffffffffffffffffffffffffffff1673ffffffffffffffffffffffffffffffffffffffff16815260200191505060405180910390f35b34801561035c57600080fd5b506103896004803603602081101561037357600080fd5b8101908080359060200190929190505050610750565b005b34801561039757600080fd5b506103c4600480360360208110156103ae57600080fd5b810190808035906020019092919050505061081a565b6040518082815260200191505060405180910390f35b3480156103e657600080fd5b506103ef61083b565b6040518082815260200191505060405180910390f35b34801561041157600080fd5b5061041a610841565b005b34801561042857600080fd5b506104316108e8565b005b34801561043f57600080fd5b5061044861098f565b6040518080602001828103825283818151815260200191508051906020019060200280838360005b8381101561048b578082015181840152602081019050610470565b505050509050019250505060405180910390f35b3480156104ab57600080fd5b506104b4610a64565b604051808273ffffffffffffffffffffffffffffffffffffffff1673ffffffffffffffffffffffffffffffffffffffff16815260200191505060405180910390f35b34801561050257600080fd5b5061050b610a89565b6040518082815260200191505060405180910390f35b610529610a92565b005b34801561053757600080fd5b50610540610ba6565b6040518082815260200191505060405180910390f35b34801561056257600080fd5b5061056b610bac565b6040518082815260200191505060405180910390f35b34801561058d57600080fd5b506105ba600480360360208110156105a457600080fd5b8101908080359060200190929190505050610bb2565b6040518082815260200191505060405180910390f35b3480156105dc57600080fd5b506105e5610bc0565b6040518082815260200191505060405180910390f35b34801561060757600080fd5b506106346004803603602081101561061e57600080fd5b8101908080359060200190929190505050610bc6565b6040518080602001828103825283818151815260200191508051906020019060200280838360005b8381101561067757808201518184015260208101905061065c565b505050509050019250505060405180910390f35b34801561069757600080fd5b506106da600480360360208110156106ae57600080fd5b81019080803573ffffffffffffffffffffffffffffffffffffffff169060200190929190505050610c49565b005b3480156106e857600080fd5b506106f1610d31565b6040518082815260200191505060405180910390f35b60006064905090565b6000600760008360ff16815260200190815260200160002060009054906101000a900473ffffffffffffffffffffffffffffffffffffffff169050919050565b80670de0b6b3a76400008111156107cf576040517f08c379a000000000000000000000000000000000000000000000000000000000815260040180806020018281038252601f8152602001807f43616e6e6f74207769746864726177206d6f7265207468616e2031206574680081525060200191505060405180910390fd5b3373ffffffffffffffffffffffffffffffffffffffff166108fc839081150290604051600060405180830381858888f19350505050158015610815573d6000803e3d6000fd5b505050565b6004818154811061082757fe5b906000526020600020016000915090505481565b60035481565b6000809054906101000a900473ffffffffffffffffffffffffffffffffffffffff1673ffffffffffffffffffffffffffffffffffffffff163373ffffffffffffffffffffffffffffffffffffffff16146108e6576040517f08c379a0000000000000000000000000000000000000000000000000000000008152600401808060200182810382526021815260200180610d5a6021913960400191505060405180910390fd5b565b6000809054906101000a900473ffffffffffffffffffffffffffffffffffffffff1673ffffffffffffffffffffffffffffffffffffffff163373ffffffffffffffffffffffffffffffffffffffff161461098d576040517f08c379a0000000000000000000000000000000000000000000000000000000008152600401808060200182810382526021815260200180610d5a6021913960400191505060405180910390fd5b565b6060806005546040519080825280602002602001820160405280156109c35781602001602082028038833980820191505090505b50905060008090505b8151811015610a5c576007600082815260200190815260200160002060009054906101000a900473ffffffffffffffffffffffffffffffffffffffff16828281518110610a1557fe5b602002602001019073ffffffffffffffffffffffffffffffffffffffff16908173ffffffffffffffffffffffffffffffffffffffff168152505080806001019150506109cc565b508091505090565b6000809054906101000a900473ffffffffffffffffffffffffffffffffffffffff1681565b60006004905090565b6000339050600660008273ffffffffffffffffffffffffffffffffffffffff1673ffffffffffffffffffffffffffffffffffffffff16815260200190815260200160002060009054906101000a900460ff16610ba3576001600660008373ffffffffffffffffffffffffffffffffffffffff1673ffffffffffffffffffffffffffffffffffffffff16815260200190815260200160002060006101000a81548160ff02191690831515021790555080600760006005600081548092919060010191905055815260200190815260200160002060006101000a81548173ffffffffffffffffffffffffffffffffffffffff021916908373ffffffffffffffffffffffffffffffffffffffff1602179055505b50565b60015481565b60055481565b600081600254019050919050565b60025481565b606060048290806001815401808255809150506001900390600052602060002001600090919091909150556004805480602002602001604051908101604052809291908181526020018280548015610c3d57602002820191906000526020600020905b815481526020019060010190808311610c29575b50505050509050919050565b6000809054906101000a900473ffffffffffffffffffffffffffffffffffffffff1673ffffffffffffffffffffffffffffffffffffffff163373ffffffffffffffffffffffffffffffffffffffff1614610cee576040517f08c379a0000000000000000000000000000000000000000000000000000000008152600401808060200182810382526021815260200180610d5a6021913960400191505060405180910390fd5b806000806101000a81548173ffffffffffffffffffffffffffffffffffffffff021916908373ffffffffffffffffffffffffffffffffffffffff16021790555050565b60007f48656c6c6f20776f726c6400000000000000000000000000000000000000000090509056fe4f6e6c79206f776e65722063616e2063616c6c20746869732066756e6374696f6ea26469706673582212202730bb331370064c868491f65281ad058ebbd9beb777225c342dafd5d0e7a96264736f6c63430006010033",
  "source": "// SPDX-License-Identifier: MIT\npragma solidity >=0.6.1 <0.9.0;\n\nimport \"./Owned.sol\";\nimport \"./Logger.sol\";\nimport \"./IFaucet.sol\";\n\ncontract Faucet is Owned, Logger, IFaucet {\n  event Log(string func, address sender, uint value, bytes data);\n  // storage variables\n  uint public funds = 1000; // positive values only\n  int public counter = -10;\n  uint[] public array;\n  uint public numOfFunders;\n  // address[] private funders;\n  mapping(address => bool) private funders; // lut = look up table\n  mapping(uint => address) private lutFunders; // lut = look up table\n\n  modifier limitWithdraw(uint withdrawAmount) {\n    require(withdrawAmount <= 1000000000000000000, \"Cannot withdraw more than 1 eth\");\n    _;\n  }\n\n  // private -> can be accessible only within the smart contract\n  // internal -> can be accessible within smart contract and also derived smart contract\n\n  function pushToArr(uint val) public returns(uint[] memory res) {\n    array.push(val);\n    res = array;\n  }\n\n  function getFundsVal(uint val) view public returns(uint res) {\n    res = funds + val;\n  }\n\n  // @notice Will receive any eth sent to the contract\n  fallback() external payable {\n    emit Log(\"fallback\", msg.sender, msg.value, msg.data);\n  }\n\n  receive() external payable {\n    emit Log(\"receive\", msg.sender, msg.value, \"\");\n  }\n\n  function emitLog() public override pure returns(bytes32) {\n    return \"Hello world\";\n  }\n\n  function transferOwnership(address newOwner) external onlyOwner {\n    owner = newOwner;\n  }\n\n  function addFunds() override external payable {\n    // funders.push(msg.sender);\n    // uint index = numOfFunders++;\n    // lutFunders[index] = msg.sender;\n    address funder = msg.sender;\n    if(!funders[funder]) {\n      // numOfFunders++;\n      funders[funder] = true;\n      lutFunders[numOfFunders++] = funder;\n    }\n  }\n\n  function withdraw(uint withdrawAmount) override external limitWithdraw(withdrawAmount) {\n    payable(msg.sender).transfer(withdrawAmount);\n  }\n\n  function justTesting() external pure returns(uint) {\n    return 2 + 2;\n  }\n\n  function test1() external onlyOwner {\n    // some managing stuff that only admin should have access to\n  }\n\n  function test2() external onlyOwner {\n    // some managing stuff that only admin should have access to\n  }\n // with array\n // retrieve all funders (cannot get directly all funders from the property)\n  // function getAllFunders() public view returns(address[] memory) {\n  //   return funders;\n  // }\n\n  // function getFunderAtIndex(uint8 index) external view returns(address) {\n  //   address[] memory _funders = gellAllFunders();\n  //   return _funders[index];\n  // }\n\n// with mapping\n  function getFunderAtIndex(uint8 index) external view returns(address) {\n    return lutFunders[index];\n  }\n  function getAllFunders() external view returns(address[] memory) {\n    address[] memory _funders = new address[](numOfFunders);\n    for (uint256 i = 0; i < _funders.length; i++) {\n      _funders[i] = lutFunders[i];\n    }\n    return _funders;\n  }\n}\n\n// pure, view - read-only call, no gas fees\n// view - it indicates that the function will not alter the storage state in any way\n// pure - even more strict, indicating that it won't even read the storage state\n\n// Transactions (can generate state changes) and require gas fees\n// read-only call, no gas fees\n\n// to talk to the node on the network you can make JSON-RPC http calls\n",
  "sourcePath": "/Users/jkancel/root/courses/eincodeAcademy/blockchain/faucet/contracts/Faucet.sol",
  "compiler": {
    "name": "solc",
    "version": "0.6.1+commit.e6f7d5a4.Emscripten.clang"
  },
  "schemaVersion": "3.4.2",
  "updatedAt": "2022-06-03T13:54:39.756Z",
  "networkType": "ethereum",
  "devdoc": {
    "methods": {}
  },
  "userdoc": {
    "methods": {}
  }
}