{
  "contractName": "Storage",
  "abi": [
    {
      "inputs": [],
      "stateMutability": "nonpayable",
      "type": "constructor"
    },
    {
      "inputs": [],
      "name": "a",
      "outputs": [
        {
          "internalType": "uint8",
          "name": "",
          "type": "uint8"
        }
      ],
      "stateMutability": "view",
      "type": "function",
      "constant": true
    },
    {
      "inputs": [
        {
          "internalType": "uint256",
          "name": "",
          "type": "uint256"
        }
      ],
      "name": "aa",
      "outputs": [
        {
          "internalType": "uint256",
          "name": "",
          "type": "uint256"
        }
      ],
      "stateMutability": "view",
      "type": "function",
      "constant": true
    },
    {
      "inputs": [],
      "name": "b",
      "outputs": [
        {
          "internalType": "uint16",
          "name": "",
          "type": "uint16"
        }
      ],
      "stateMutability": "view",
      "type": "function",
      "constant": true
    },
    {
      "inputs": [
        {
          "internalType": "address",
          "name": "",
          "type": "address"
        }
      ],
      "name": "bb",
      "outputs": [
        {
          "internalType": "uint256",
          "name": "",
          "type": "uint256"
        }
      ],
      "stateMutability": "view",
      "type": "function",
      "constant": true
    },
    {
      "inputs": [],
      "name": "c",
      "outputs": [
        {
          "internalType": "address",
          "name": "",
          "type": "address"
        }
      ],
      "stateMutability": "view",
      "type": "function",
      "constant": true
    },
    {
      "inputs": [
        {
          "internalType": "uint256",
          "name": "",
          "type": "uint256"
        }
      ],
      "name": "cc",
      "outputs": [
        {
          "internalType": "uint256",
          "name": "",
          "type": "uint256"
        }
      ],
      "stateMutability": "view",
      "type": "function",
      "constant": true
    },
    {
      "inputs": [],
      "name": "e",
      "outputs": [
        {
          "internalType": "uint64",
          "name": "",
          "type": "uint64"
        }
      ],
      "stateMutability": "view",
      "type": "function",
      "constant": true
    },
    {
      "inputs": [],
      "name": "f",
      "outputs": [
        {
          "internalType": "uint256",
          "name": "",
          "type": "uint256"
        }
      ],
      "stateMutability": "view",
      "type": "function",
      "constant": true
    },
    {
      "inputs": [],
      "name": "g",
      "outputs": [
        {
          "internalType": "uint8",
          "name": "",
          "type": "uint8"
        }
      ],
      "stateMutability": "view",
      "type": "function",
      "constant": true
    },
    {
      "inputs": [],
      "name": "h",
      "outputs": [
        {
          "internalType": "uint256",
          "name": "",
          "type": "uint256"
        }
      ],
      "stateMutability": "view",
      "type": "function",
      "constant": true
    }
  ],
  "bytecode": "0x60806040526007600360006101000a81548160ff021916908360ff160217905550600a600360016101000a81548161ffff021916908361ffff16021790555073803ae903178f21ad36955d082f4f3dde75a64d7b6003806101000a81548173ffffffffffffffffffffffffffffffffffffffff021916908373ffffffffffffffffffffffffffffffffffffffff1602179055506001600360176101000a81548160ff021916908315150217905550600f600360186101000a81548167ffffffffffffffff021916908367ffffffffffffffff16021790555060c86004556028600560006101000a81548160ff021916908360ff16021790555061031560065534801561010a57600080fd5b506002600190806001815401808255809150506001900390600052602060002001600090919091909150556002600a908060018154018082558091505060019003906000526020600020016000909190919091505560026064908060018154018082558091505060019003906000526020600020016000909190919091505560046000806002815260200190815260200160002081905550600a600080600381526020019081526020016000208190555060646001600073803ae903178f21ad36955d082f4f3dde75a64d7b73ffffffffffffffffffffffffffffffffffffffff1673ffffffffffffffffffffffffffffffffffffffff168152602001908152602001600020819055506103b1806102236000396000f3fe608060405234801561001057600080fd5b506004361061009e5760003560e01c8063c3da42b811610066578063c3da42b81461016b578063e1d9bbbd146101b5578063e2179b8e1461020d578063eb366c1314610231578063ffae15ba146102735761009e565b80630dbe671f146100a357806326121ff0146100c75780634df7e3d0146100e55780637323febe1461010b578063b8c9d3651461014d575b600080fd5b6100ab6102a5565b604051808260ff1660ff16815260200191505060405180910390f35b6100cf6102b8565b6040518082815260200191505060405180910390f35b6100ed6102be565b604051808261ffff1661ffff16815260200191505060405180910390f35b6101376004803603602081101561012157600080fd5b81019080803590602001909291905050506102d2565b6040518082815260200191505060405180910390f35b6101556102ea565b6040518082815260200191505060405180910390f35b6101736102f0565b604051808273ffffffffffffffffffffffffffffffffffffffff1673ffffffffffffffffffffffffffffffffffffffff16815260200191505060405180910390f35b6101f7600480360360208110156101cb57600080fd5b81019080803573ffffffffffffffffffffffffffffffffffffffff169060200190929190505050610315565b6040518082815260200191505060405180910390f35b61021561032d565b604051808260ff1660ff16815260200191505060405180910390f35b61025d6004803603602081101561024757600080fd5b8101908080359060200190929190505050610340565b6040518082815260200191505060405180910390f35b61027b610361565b604051808267ffffffffffffffff1667ffffffffffffffff16815260200191505060405180910390f35b600360009054906101000a900460ff1681565b60045481565b600360019054906101000a900461ffff1681565b60006020528060005260406000206000915090505481565b60065481565b6003809054906101000a900473ffffffffffffffffffffffffffffffffffffffff1681565b60016020528060005260406000206000915090505481565b600560009054906101000a900460ff1681565b6002818154811061034d57fe5b906000526020600020016000915090505481565b600360189054906101000a900467ffffffffffffffff168156fea26469706673582212209746436f2830d46e5b97e44cfc2e669607dc629fea8d2055bd74c114b3dc2eaf64736f6c63430006010033",
  "source": "// SPDX-License-Identifier: MIT\npragma solidity >=0.6.1 <0.9.0;\n\ncontract Storage {\n\n  // keccak256(key . slot)\n  mapping(uint => uint) public aa; // slot 0\n  mapping(address => uint) public bb; // slot 1\n\n  // keccak256(slot) + index of the item\n  uint[] public cc; // slot 2\n\n  // storage variables\n  uint8 public a = 7; // 1 byte\n  uint16 public b = 10; // 2 bytes\n  address public c = 0x803aE903178f21AD36955d082f4F3dDE75A64D7b; // 20 bytes\n  bool d = true; // 1 byte\n  uint64 public e = 15; // 8 bytes\n// 32 bytes, so all values will be stored in slot 3\n// 0x 0f 01 803ae903178f21ad36955d082f4f3dde75a64d7b 000a 07  -> result of for the slot 0 web3.eth.getStorageAt(\"0xDf126147885826Ff4BA92E6B98fc3aCdcaE82fdA\", 0)\n\n  uint256 public f = 200; // 32 bytes -> slot 4\n  uint8 public g = 40; // 1 byte -> slot 5\n  uint256 public h = 789; // 32 bytes -> slot 6\n\n  constructor() public {\n    cc.push(1);\n    cc.push(10);\n    cc.push(100);\n\n    aa[2] = 4;\n    aa[3] = 10;\n    bb[0x803aE903178f21AD36955d082f4F3dDE75A64D7b] = 100;\n  }\n}\n\n\n// 0x00000000000000000000000000000000000000000000000000000000000000020000000000000000000000000000000000000000000000000000000000000000\n// convert in Hex with keccak256 : abbb5caa7dda850e60932de0934eb1f9d0f59695050f761dc64e443e5030a569\n// so to get storage : web3.eth.getStorageAt(\"0xc4ea3ed5cf1c88995fe368429f617dF388C44588\", \"0xabbb5caa7dda850e60932de0934eb1f9d0f59695050f761dc64e443e5030a569\") = 4\n\n\n// web3.eth.getStorageAt(\"0xc4ea3ed5cf1c88995fe368429f617dF388C44588\", \"0x405787fa12a823e0f2b7631cc41b3ba8828b3321ca811111fa75cd3aa3bb5ace\") = 1 in uint array\n",
  "sourcePath": "/Users/jkancel/root/courses/eincodeAcademy/blockchain/faucet/contracts/Storage.sol",
  "compiler": {
    "name": "solc",
    "version": "0.6.1+commit.e6f7d5a4.Emscripten.clang"
  },
  "schemaVersion": "3.4.2",
  "updatedAt": "2022-06-03T13:54:40.166Z",
  "networkType": "ethereum",
  "devdoc": {
    "methods": {}
  },
  "userdoc": {
    "methods": {}
  }
}