{
  "contractName": "Test",
  "abi": [
    {
      "inputs": [
        {
          "internalType": "uint256",
          "name": "testNum",
          "type": "uint256"
        }
      ],
      "name": "test",
      "outputs": [
        {
          "internalType": "uint256",
          "name": "data",
          "type": "uint256"
        }
      ],
      "stateMutability": "pure",
      "type": "function"
    },
    {
      "inputs": [],
      "name": "test2",
      "outputs": [
        {
          "internalType": "bytes32",
          "name": "data",
          "type": "bytes32"
        }
      ],
      "stateMutability": "pure",
      "type": "function"
    }
  ],
  "bytecode": "0x608060405234801561001057600080fd5b50610154806100206000396000f3fe608060405234801561001057600080fd5b50600436106100365760003560e01c806329e99f071461003b57806366e41cb71461007d575b600080fd5b6100676004803603602081101561005157600080fd5b810190808035906020019092919050505061009b565b6040518082815260200191505060405180910390f35b6100856100e1565b6040518082815260200191505060405180910390f35b600060d26040526100aa6100fc565b6040518060600160405280600160ff168152602001600260ff168152602001600360ff168152509050602060900151915050919050565b60006040516468656c6c6f6000820152600081015191505090565b604051806060016040528060039060208202803883398082019150509050509056fea264697066735822122051d88044ff9b632b854db48d9659e9c3dcb31d3438a60727124894a778d5ad5564736f6c63430006010033",
  "source": "// SPDX-License-Identifier: MIT\npragma solidity >=0.6.1 <0.9.0;\n\ncontract Test {\n\n  function test(uint testNum) external pure returns (uint data) {\n\n    assembly {\n    //   let _num := 4\n    //   let _fmp := mload(0x40)\n    //   mstore(0x40, 0x90)\n        mstore(0x40, 0xd2)\n    }\n\n    uint8[3] memory items = [1,2,3];\n\n    assembly {\n        data := mload(add(0x90, 0x20))\n    }\n  }\n\n  function test2() external pure returns (bytes32 data) {\n\n    assembly {\n        let fmp := mload(0x40)\n        //hello\n        mstore(add(fmp, 0x00), 0x68656C6C6F)\n        data := mload(add(fmp, 0x00))\n    }\n  }\n}\n\n// 0x40\n// 0x0000000000000000000000000000000000000000000000000000000000000080\n\n\n// 0x29e99f070000000000000000000000000000000000000000000000000000000000000003",
  "sourcePath": "/Users/jkancel/root/courses/eincodeAcademy/blockchain/faucet/contracts/Test.sol",
  "compiler": {
    "name": "solc",
    "version": "0.6.1+commit.e6f7d5a4.Emscripten.clang"
  },
  "schemaVersion": "3.4.2",
  "updatedAt": "2022-06-03T13:18:11.778Z",
  "devdoc": {
    "methods": {}
  },
  "userdoc": {
    "methods": {}
  }
}